{
  "_format": "hh-sol-artifact-1",
  "contractName": "RealEstate",
  "sourceName": "contracts/RealEstate.sol",
  "abi": [
    {
      "inputs": [],
      "stateMutability": "nonpayable",
      "type": "constructor"
    },
    {
      "anonymous": false,
      "inputs": [
        {
          "indexed": true,
          "internalType": "address",
          "name": "owner",
          "type": "address"
        },
        {
          "indexed": true,
          "internalType": "address",
          "name": "approved",
          "type": "address"
        },
        {
          "indexed": true,
          "internalType": "uint256",
          "name": "tokenId",
          "type": "uint256"
        }
      ],
      "name": "Approval",
      "type": "event"
    },
    {
      "anonymous": false,
      "inputs": [
        {
          "indexed": true,
          "internalType": "address",
          "name": "owner",
          "type": "address"
        },
        {
          "indexed": true,
          "internalType": "address",
          "name": "operator",
          "type": "address"
        },
        {
          "indexed": false,
          "internalType": "bool",
          "name": "approved",
          "type": "bool"
        }
      ],
      "name": "ApprovalForAll",
      "type": "event"
    },
    {
      "anonymous": false,
      "inputs": [
        {
          "indexed": false,
          "internalType": "uint256",
          "name": "_fromTokenId",
          "type": "uint256"
        },
        {
          "indexed": false,
          "internalType": "uint256",
          "name": "_toTokenId",
          "type": "uint256"
        }
      ],
      "name": "BatchMetadataUpdate",
      "type": "event"
    },
    {
      "anonymous": false,
      "inputs": [
        {
          "indexed": false,
          "internalType": "uint256",
          "name": "_tokenId",
          "type": "uint256"
        }
      ],
      "name": "MetadataUpdate",
      "type": "event"
    },
    {
      "anonymous": false,
      "inputs": [
        {
          "indexed": true,
          "internalType": "address",
          "name": "from",
          "type": "address"
        },
        {
          "indexed": true,
          "internalType": "address",
          "name": "to",
          "type": "address"
        },
        {
          "indexed": true,
          "internalType": "uint256",
          "name": "tokenId",
          "type": "uint256"
        }
      ],
      "name": "Transfer",
      "type": "event"
    },
    {
      "inputs": [
        {
          "internalType": "address",
          "name": "to",
          "type": "address"
        },
        {
          "internalType": "uint256",
          "name": "tokenId",
          "type": "uint256"
        }
      ],
      "name": "approve",
      "outputs": [],
      "stateMutability": "nonpayable",
      "type": "function"
    },
    {
      "inputs": [
        {
          "internalType": "address",
          "name": "owner",
          "type": "address"
        }
      ],
      "name": "balanceOf",
      "outputs": [
        {
          "internalType": "uint256",
          "name": "",
          "type": "uint256"
        }
      ],
      "stateMutability": "view",
      "type": "function"
    },
    {
      "inputs": [
        {
          "internalType": "uint256",
          "name": "tokenId",
          "type": "uint256"
        }
      ],
      "name": "getApproved",
      "outputs": [
        {
          "internalType": "address",
          "name": "",
          "type": "address"
        }
      ],
      "stateMutability": "view",
      "type": "function"
    },
    {
      "inputs": [
        {
          "internalType": "address",
          "name": "owner",
          "type": "address"
        },
        {
          "internalType": "address",
          "name": "operator",
          "type": "address"
        }
      ],
      "name": "isApprovedForAll",
      "outputs": [
        {
          "internalType": "bool",
          "name": "",
          "type": "bool"
        }
      ],
      "stateMutability": "view",
      "type": "function"
    },
    {
      "inputs": [
        {
          "internalType": "string",
          "name": "tokenURI",
          "type": "string"
        }
      ],
      "name": "mint",
      "outputs": [
        {
          "internalType": "uint256",
          "name": "",
          "type": "uint256"
        }
      ],
      "stateMutability": "nonpayable",
      "type": "function"
    },
    {
      "inputs": [],
      "name": "name",
      "outputs": [
        {
          "internalType": "string",
          "name": "",
          "type": "string"
        }
      ],
      "stateMutability": "view",
      "type": "function"
    },
    {
      "inputs": [
        {
          "internalType": "uint256",
          "name": "tokenId",
          "type": "uint256"
        }
      ],
      "name": "ownerOf",
      "outputs": [
        {
          "internalType": "address",
          "name": "",
          "type": "address"
        }
      ],
      "stateMutability": "view",
      "type": "function"
    },
    {
      "inputs": [
        {
          "internalType": "address",
          "name": "from",
          "type": "address"
        },
        {
          "internalType": "address",
          "name": "to",
          "type": "address"
        },
        {
          "internalType": "uint256",
          "name": "tokenId",
          "type": "uint256"
        }
      ],
      "name": "safeTransferFrom",
      "outputs": [],
      "stateMutability": "nonpayable",
      "type": "function"
    },
    {
      "inputs": [
        {
          "internalType": "address",
          "name": "from",
          "type": "address"
        },
        {
          "internalType": "address",
          "name": "to",
          "type": "address"
        },
        {
          "internalType": "uint256",
          "name": "tokenId",
          "type": "uint256"
        },
        {
          "internalType": "bytes",
          "name": "data",
          "type": "bytes"
        }
      ],
      "name": "safeTransferFrom",
      "outputs": [],
      "stateMutability": "nonpayable",
      "type": "function"
    },
    {
      "inputs": [
        {
          "internalType": "address",
          "name": "operator",
          "type": "address"
        },
        {
          "internalType": "bool",
          "name": "approved",
          "type": "bool"
        }
      ],
      "name": "setApprovalForAll",
      "outputs": [],
      "stateMutability": "nonpayable",
      "type": "function"
    },
    {
      "inputs": [
        {
          "internalType": "bytes4",
          "name": "interfaceId",
          "type": "bytes4"
        }
      ],
      "name": "supportsInterface",
      "outputs": [
        {
          "internalType": "bool",
          "name": "",
          "type": "bool"
        }
      ],
      "stateMutability": "view",
      "type": "function"
    },
    {
      "inputs": [],
      "name": "symbol",
      "outputs": [
        {
          "internalType": "string",
          "name": "",
          "type": "string"
        }
      ],
      "stateMutability": "view",
      "type": "function"
    },
    {
      "inputs": [
        {
          "internalType": "uint256",
          "name": "tokenId",
          "type": "uint256"
        }
      ],
      "name": "tokenURI",
      "outputs": [
        {
          "internalType": "string",
          "name": "",
          "type": "string"
        }
      ],
      "stateMutability": "view",
      "type": "function"
    },
    {
      "inputs": [],
      "name": "totalSupply",
      "outputs": [
        {
          "internalType": "uint256",
          "name": "",
          "type": "uint256"
        }
      ],
      "stateMutability": "view",
      "type": "function"
    },
    {
      "inputs": [
        {
          "internalType": "address",
          "name": "from",
          "type": "address"
        },
        {
          "internalType": "address",
          "name": "to",
          "type": "address"
        },
        {
          "internalType": "uint256",
          "name": "tokenId",
          "type": "uint256"
        }
      ],
      "name": "transferFrom",
      "outputs": [],
      "stateMutability": "nonpayable",
      "type": "function"
    }
  ],
  "bytecode": "0x60806040523480156200001157600080fd5b506040518060400160405280600a81526020017f5265616c457374617465000000000000000000000000000000000000000000008152506040518060400160405280600481526020017f5245414c0000000000000000000000000000000000000000000000000000000081525081600090816200008f919062000324565b508060019081620000a1919062000324565b5050506200040b565b600081519050919050565b7f4e487b7100000000000000000000000000000000000000000000000000000000600052604160045260246000fd5b7f4e487b7100000000000000000000000000000000000000000000000000000000600052602260045260246000fd5b600060028204905060018216806200012c57607f821691505b602082108103620001425762000141620000e4565b5b50919050565b60008190508160005260206000209050919050565b60006020601f8301049050919050565b600082821b905092915050565b600060088302620001ac7fffffffffffffffffffffffffffffffffffffffffffffffffffffffffffffffff826200016d565b620001b886836200016d565b95508019841693508086168417925050509392505050565b6000819050919050565b6000819050919050565b600062000205620001ff620001f984620001d0565b620001da565b620001d0565b9050919050565b6000819050919050565b6200022183620001e4565b6200023962000230826200020c565b8484546200017a565b825550505050565b600090565b6200025062000241565b6200025d81848462000216565b505050565b5b8181101562000285576200027960008262000246565b60018101905062000263565b5050565b601f821115620002d4576200029e8162000148565b620002a9846200015d565b81016020851015620002b9578190505b620002d1620002c8856200015d565b83018262000262565b50505b505050565b600082821c905092915050565b6000620002f960001984600802620002d9565b1980831691505092915050565b6000620003148383620002e6565b9150826002028217905092915050565b6200032f82620000aa565b67ffffffffffffffff8111156200034b576200034a620000b5565b5b62000357825462000113565b6200036482828562000289565b600060209050601f8311600181146200039c576000841562000387578287015190505b62000393858262000306565b86555062000403565b601f198416620003ac8662000148565b60005b82811015620003d657848901518255600182019150602085019450602081019050620003af565b86831015620003f65784890151620003f2601f891682620002e6565b8355505b6001600288020188555050505b505050505050565b612b59806200041b6000396000f3fe608060405234801561001057600080fd5b50600436106100f55760003560e01c80636352211e11610097578063b88d4fde11610066578063b88d4fde14610284578063c87b56dd146102a0578063d85d3d27146102d0578063e985e9c514610300576100f5565b80636352211e146101ea57806370a082311461021a57806395d89b411461024a578063a22cb46514610268576100f5565b8063095ea7b3116100d3578063095ea7b31461017857806318160ddd1461019457806323b872dd146101b257806342842e0e146101ce576100f5565b806301ffc9a7146100fa57806306fdde031461012a578063081812fc14610148575b600080fd5b610114600480360381019061010f91906119e4565b610330565b6040516101219190611a2c565b60405180910390f35b610132610391565b60405161013f9190611ad7565b60405180910390f35b610162600480360381019061015d9190611b2f565b610423565b60405161016f9190611b9d565b60405180910390f35b610192600480360381019061018d9190611be4565b610469565b005b61019c610580565b6040516101a99190611c33565b60405180910390f35b6101cc60048036038101906101c79190611c4e565b61058a565b005b6101e860048036038101906101e39190611c4e565b6105ea565b005b61020460048036038101906101ff9190611b2f565b61060a565b6040516102119190611b9d565b60405180910390f35b610234600480360381019061022f9190611ca1565b610690565b6040516102419190611c33565b60405180910390f35b610252610747565b60405161025f9190611ad7565b60405180910390f35b610282600480360381019061027d9190611cfa565b6107d9565b005b61029e60048036038101906102999190611e6f565b6107ef565b005b6102ba60048036038101906102b59190611b2f565b610851565b6040516102c79190611ad7565b60405180910390f35b6102ea60048036038101906102e59190611f93565b610963565b6040516102f79190611c33565b60405180910390f35b61031a60048036038101906103159190611fdc565b6109a1565b6040516103279190611a2c565b60405180910390f35b6000634906490660e01b7bffffffffffffffffffffffffffffffffffffffffffffffffffffffff1916827bffffffffffffffffffffffffffffffffffffffffffffffffffffffff1916148061038a575061038982610a35565b5b9050919050565b6060600080546103a09061204b565b80601f01602080910402602001604051908101604052809291908181526020018280546103cc9061204b565b80156104195780601f106103ee57610100808354040283529160200191610419565b820191906000526020600020905b8154815290600101906020018083116103fc57829003601f168201915b5050505050905090565b600061042e82610b17565b6004600083815260200190815260200160002060009054906101000a900473ffffffffffffffffffffffffffffffffffffffff169050919050565b60006104748261060a565b90508073ffffffffffffffffffffffffffffffffffffffff168373ffffffffffffffffffffffffffffffffffffffff16036104e4576040517f08c379a00000000000000000000000000000000000000000000000000000000081526004016104db906120ee565b60405180910390fd5b8073ffffffffffffffffffffffffffffffffffffffff16610503610b62565b73ffffffffffffffffffffffffffffffffffffffff16148061053257506105318161052c610b62565b6109a1565b5b610571576040517f08c379a000000000000000000000000000000000000000000000000000000000815260040161056890612180565b60405180910390fd5b61057b8383610b6a565b505050565b6000600754905090565b61059b610595610b62565b82610c23565b6105da576040517f08c379a00000000000000000000000000000000000000000000000000000000081526004016105d190612212565b60405180910390fd5b6105e5838383610cb8565b505050565b610605838383604051806020016040528060008152506107ef565b505050565b60008061061683610fb1565b9050600073ffffffffffffffffffffffffffffffffffffffff168173ffffffffffffffffffffffffffffffffffffffff1603610687576040517f08c379a000000000000000000000000000000000000000000000000000000000815260040161067e9061227e565b60405180910390fd5b80915050919050565b60008073ffffffffffffffffffffffffffffffffffffffff168273ffffffffffffffffffffffffffffffffffffffff1603610700576040517f08c379a00000000000000000000000000000000000000000000000000000000081526004016106f790612310565b60405180910390fd5b600360008373ffffffffffffffffffffffffffffffffffffffff1673ffffffffffffffffffffffffffffffffffffffff168152602001908152602001600020549050919050565b6060600180546107569061204b565b80601f01602080910402602001604051908101604052809291908181526020018280546107829061204b565b80156107cf5780601f106107a4576101008083540402835291602001916107cf565b820191906000526020600020905b8154815290600101906020018083116107b257829003601f168201915b5050505050905090565b6107eb6107e4610b62565b8383610fee565b5050565b6108006107fa610b62565b83610c23565b61083f576040517f08c379a000000000000000000000000000000000000000000000000000000000815260040161083690612212565b60405180910390fd5b61084b8484848461115a565b50505050565b606061085c82610b17565b600060066000848152602001908152602001600020805461087c9061204b565b80601f01602080910402602001604051908101604052809291908181526020018280546108a89061204b565b80156108f55780601f106108ca576101008083540402835291602001916108f5565b820191906000526020600020905b8154815290600101906020018083116108d857829003601f168201915b5050505050905060006109066111b6565b9050600081510361091b57819250505061095e565b60008251111561095057808260405160200161093892919061236c565b6040516020818303038152906040529250505061095e565b610959846111cd565b925050505b919050565b600060076000815480929190610978906123bf565b91905055506000600754905061098e3382611235565b6109988184611452565b80915050919050565b6000600560008473ffffffffffffffffffffffffffffffffffffffff1673ffffffffffffffffffffffffffffffffffffffff16815260200190815260200160002060008373ffffffffffffffffffffffffffffffffffffffff1673ffffffffffffffffffffffffffffffffffffffff16815260200190815260200160002060009054906101000a900460ff16905092915050565b60007f80ac58cd000000000000000000000000000000000000000000000000000000007bffffffffffffffffffffffffffffffffffffffffffffffffffffffff1916827bffffffffffffffffffffffffffffffffffffffffffffffffffffffff19161480610b0057507f5b5e139f000000000000000000000000000000000000000000000000000000007bffffffffffffffffffffffffffffffffffffffffffffffffffffffff1916827bffffffffffffffffffffffffffffffffffffffffffffffffffffffff1916145b80610b105750610b0f826114f6565b5b9050919050565b610b2081611560565b610b5f576040517f08c379a0000000000000000000000000000000000000000000000000000000008152600401610b569061227e565b60405180910390fd5b50565b600033905090565b816004600083815260200190815260200160002060006101000a81548173ffffffffffffffffffffffffffffffffffffffff021916908373ffffffffffffffffffffffffffffffffffffffff160217905550808273ffffffffffffffffffffffffffffffffffffffff16610bdd8361060a565b73ffffffffffffffffffffffffffffffffffffffff167f8c5be1e5ebec7d5bd14f71427d1e84f3dd0314c0f7b2291e5b200ac8c7c3b92560405160405180910390a45050565b600080610c2f8361060a565b90508073ffffffffffffffffffffffffffffffffffffffff168473ffffffffffffffffffffffffffffffffffffffff161480610c715750610c7081856109a1565b5b80610caf57508373ffffffffffffffffffffffffffffffffffffffff16610c9784610423565b73ffffffffffffffffffffffffffffffffffffffff16145b91505092915050565b8273ffffffffffffffffffffffffffffffffffffffff16610cd88261060a565b73ffffffffffffffffffffffffffffffffffffffff1614610d2e576040517f08c379a0000000000000000000000000000000000000000000000000000000008152600401610d2590612479565b60405180910390fd5b600073ffffffffffffffffffffffffffffffffffffffff168273ffffffffffffffffffffffffffffffffffffffff1603610d9d576040517f08c379a0000000000000000000000000000000000000000000000000000000008152600401610d949061250b565b60405180910390fd5b610daa83838360016115a1565b8273ffffffffffffffffffffffffffffffffffffffff16610dca8261060a565b73ffffffffffffffffffffffffffffffffffffffff1614610e20576040517f08c379a0000000000000000000000000000000000000000000000000000000008152600401610e1790612479565b60405180910390fd5b6004600082815260200190815260200160002060006101000a81549073ffffffffffffffffffffffffffffffffffffffff02191690556001600360008573ffffffffffffffffffffffffffffffffffffffff1673ffffffffffffffffffffffffffffffffffffffff168152602001908152602001600020600082825403925050819055506001600360008473ffffffffffffffffffffffffffffffffffffffff1673ffffffffffffffffffffffffffffffffffffffff16815260200190815260200160002060008282540192505081905550816002600083815260200190815260200160002060006101000a81548173ffffffffffffffffffffffffffffffffffffffff021916908373ffffffffffffffffffffffffffffffffffffffff160217905550808273ffffffffffffffffffffffffffffffffffffffff168473ffffffffffffffffffffffffffffffffffffffff167fddf252ad1be2c89b69c2b068fc378daa952ba7f163c4a11628f55a4df523b3ef60405160405180910390a4610fac83838360016115a7565b505050565b60006002600083815260200190815260200160002060009054906101000a900473ffffffffffffffffffffffffffffffffffffffff169050919050565b8173ffffffffffffffffffffffffffffffffffffffff168373ffffffffffffffffffffffffffffffffffffffff160361105c576040517f08c379a000000000000000000000000000000000000000000000000000000000815260040161105390612577565b60405180910390fd5b80600560008573ffffffffffffffffffffffffffffffffffffffff1673ffffffffffffffffffffffffffffffffffffffff16815260200190815260200160002060008473ffffffffffffffffffffffffffffffffffffffff1673ffffffffffffffffffffffffffffffffffffffff16815260200190815260200160002060006101000a81548160ff0219169083151502179055508173ffffffffffffffffffffffffffffffffffffffff168373ffffffffffffffffffffffffffffffffffffffff167f17307eab39ab6107e8899845ad3d59bd9653f200f220920489ca2b5937696c318360405161114d9190611a2c565b60405180910390a3505050565b611165848484610cb8565b611171848484846115ad565b6111b0576040517f08c379a00000000000000000000000000000000000000000000000000000000081526004016111a790612609565b60405180910390fd5b50505050565b606060405180602001604052806000815250905090565b60606111d882610b17565b60006111e26111b6565b90506000815111611202576040518060200160405280600081525061122d565b8061120c84611734565b60405160200161121d92919061236c565b6040516020818303038152906040525b915050919050565b600073ffffffffffffffffffffffffffffffffffffffff168273ffffffffffffffffffffffffffffffffffffffff16036112a4576040517f08c379a000000000000000000000000000000000000000000000000000000000815260040161129b90612675565b60405180910390fd5b6112ad81611560565b156112ed576040517f08c379a00000000000000000000000000000000000000000000000000000000081526004016112e4906126e1565b60405180910390fd5b6112fb6000838360016115a1565b61130481611560565b15611344576040517f08c379a000000000000000000000000000000000000000000000000000000000815260040161133b906126e1565b60405180910390fd5b6001600360008473ffffffffffffffffffffffffffffffffffffffff1673ffffffffffffffffffffffffffffffffffffffff16815260200190815260200160002060008282540192505081905550816002600083815260200190815260200160002060006101000a81548173ffffffffffffffffffffffffffffffffffffffff021916908373ffffffffffffffffffffffffffffffffffffffff160217905550808273ffffffffffffffffffffffffffffffffffffffff16600073ffffffffffffffffffffffffffffffffffffffff167fddf252ad1be2c89b69c2b068fc378daa952ba7f163c4a11628f55a4df523b3ef60405160405180910390a461144e6000838360016115a7565b5050565b61145b82611560565b61149a576040517f08c379a000000000000000000000000000000000000000000000000000000000815260040161149190612773565b60405180910390fd5b806006600084815260200190815260200160002090816114ba919061293f565b507ff8e1a15aba9398e019f0b49df1a4fde98ee17ae345cb5f6b5e2c27f5033e8ce7826040516114ea9190611c33565b60405180910390a15050565b60007f01ffc9a7000000000000000000000000000000000000000000000000000000007bffffffffffffffffffffffffffffffffffffffffffffffffffffffff1916827bffffffffffffffffffffffffffffffffffffffffffffffffffffffff1916149050919050565b60008073ffffffffffffffffffffffffffffffffffffffff1661158283610fb1565b73ffffffffffffffffffffffffffffffffffffffff1614159050919050565b50505050565b50505050565b60006115ce8473ffffffffffffffffffffffffffffffffffffffff16611802565b15611727578373ffffffffffffffffffffffffffffffffffffffff1663150b7a026115f7610b62565b8786866040518563ffffffff1660e01b81526004016116199493929190612a66565b6020604051808303816000875af192505050801561165557506040513d601f19601f820116820180604052508101906116529190612ac7565b60015b6116d7573d8060008114611685576040519150601f19603f3d011682016040523d82523d6000602084013e61168a565b606091505b5060008151036116cf576040517f08c379a00000000000000000000000000000000000000000000000000000000081526004016116c690612609565b60405180910390fd5b805181602001fd5b63150b7a0260e01b7bffffffffffffffffffffffffffffffffffffffffffffffffffffffff1916817bffffffffffffffffffffffffffffffffffffffffffffffffffffffff19161491505061172c565b600190505b949350505050565b60606000600161174384611825565b01905060008167ffffffffffffffff81111561176257611761611d44565b5b6040519080825280601f01601f1916602001820160405280156117945781602001600182028036833780820191505090505b509050600082602001820190505b6001156117f7578080600190039150507f3031323334353637383961626364656600000000000000000000000000000000600a86061a8153600a85816117eb576117ea612af4565b5b049450600085036117a2575b819350505050919050565b6000808273ffffffffffffffffffffffffffffffffffffffff163b119050919050565b600080600090507a184f03e93ff9f4daa797ed6e38ed64bf6a1f0100000000000000008310611883577a184f03e93ff9f4daa797ed6e38ed64bf6a1f010000000000000000838161187957611878612af4565b5b0492506040810190505b6d04ee2d6d415b85acef810000000083106118c0576d04ee2d6d415b85acef810000000083816118b6576118b5612af4565b5b0492506020810190505b662386f26fc1000083106118ef57662386f26fc1000083816118e5576118e4612af4565b5b0492506010810190505b6305f5e1008310611918576305f5e100838161190e5761190d612af4565b5b0492506008810190505b612710831061193d57612710838161193357611932612af4565b5b0492506004810190505b60648310611960576064838161195657611955612af4565b5b0492506002810190505b600a831061196f576001810190505b80915050919050565b6000604051905090565b600080fd5b600080fd5b60007fffffffff0000000000000000000000000000000000000000000000000000000082169050919050565b6119c18161198c565b81146119cc57600080fd5b50565b6000813590506119de816119b8565b92915050565b6000602082840312156119fa576119f9611982565b5b6000611a08848285016119cf565b91505092915050565b60008115159050919050565b611a2681611a11565b82525050565b6000602082019050611a416000830184611a1d565b92915050565b600081519050919050565b600082825260208201905092915050565b60005b83811015611a81578082015181840152602081019050611a66565b60008484015250505050565b6000601f19601f8301169050919050565b6000611aa982611a47565b611ab38185611a52565b9350611ac3818560208601611a63565b611acc81611a8d565b840191505092915050565b60006020820190508181036000830152611af18184611a9e565b905092915050565b6000819050919050565b611b0c81611af9565b8114611b1757600080fd5b50565b600081359050611b2981611b03565b92915050565b600060208284031215611b4557611b44611982565b5b6000611b5384828501611b1a565b91505092915050565b600073ffffffffffffffffffffffffffffffffffffffff82169050919050565b6000611b8782611b5c565b9050919050565b611b9781611b7c565b82525050565b6000602082019050611bb26000830184611b8e565b92915050565b611bc181611b7c565b8114611bcc57600080fd5b50565b600081359050611bde81611bb8565b92915050565b60008060408385031215611bfb57611bfa611982565b5b6000611c0985828601611bcf565b9250506020611c1a85828601611b1a565b9150509250929050565b611c2d81611af9565b82525050565b6000602082019050611c486000830184611c24565b92915050565b600080600060608486031215611c6757611c66611982565b5b6000611c7586828701611bcf565b9350506020611c8686828701611bcf565b9250506040611c9786828701611b1a565b9150509250925092565b600060208284031215611cb757611cb6611982565b5b6000611cc584828501611bcf565b91505092915050565b611cd781611a11565b8114611ce257600080fd5b50565b600081359050611cf481611cce565b92915050565b60008060408385031215611d1157611d10611982565b5b6000611d1f85828601611bcf565b9250506020611d3085828601611ce5565b9150509250929050565b600080fd5b600080fd5b7f4e487b7100000000000000000000000000000000000000000000000000000000600052604160045260246000fd5b611d7c82611a8d565b810181811067ffffffffffffffff82111715611d9b57611d9a611d44565b5b80604052505050565b6000611dae611978565b9050611dba8282611d73565b919050565b600067ffffffffffffffff821115611dda57611dd9611d44565b5b611de382611a8d565b9050602081019050919050565b82818337600083830152505050565b6000611e12611e0d84611dbf565b611da4565b905082815260208101848484011115611e2e57611e2d611d3f565b5b611e39848285611df0565b509392505050565b600082601f830112611e5657611e55611d3a565b5b8135611e66848260208601611dff565b91505092915050565b60008060008060808587031215611e8957611e88611982565b5b6000611e9787828801611bcf565b9450506020611ea887828801611bcf565b9350506040611eb987828801611b1a565b925050606085013567ffffffffffffffff811115611eda57611ed9611987565b5b611ee687828801611e41565b91505092959194509250565b600067ffffffffffffffff821115611f0d57611f0c611d44565b5b611f1682611a8d565b9050602081019050919050565b6000611f36611f3184611ef2565b611da4565b905082815260208101848484011115611f5257611f51611d3f565b5b611f5d848285611df0565b509392505050565b600082601f830112611f7a57611f79611d3a565b5b8135611f8a848260208601611f23565b91505092915050565b600060208284031215611fa957611fa8611982565b5b600082013567ffffffffffffffff811115611fc757611fc6611987565b5b611fd384828501611f65565b91505092915050565b60008060408385031215611ff357611ff2611982565b5b600061200185828601611bcf565b925050602061201285828601611bcf565b9150509250929050565b7f4e487b7100000000000000000000000000000000000000000000000000000000600052602260045260246000fd5b6000600282049050600182168061206357607f821691505b6020821081036120765761207561201c565b5b50919050565b7f4552433732313a20617070726f76616c20746f2063757272656e74206f776e6560008201527f7200000000000000000000000000000000000000000000000000000000000000602082015250565b60006120d8602183611a52565b91506120e38261207c565b604082019050919050565b60006020820190508181036000830152612107816120cb565b9050919050565b7f4552433732313a20617070726f76652063616c6c6572206973206e6f7420746f60008201527f6b656e206f776e6572206f7220617070726f76656420666f7220616c6c000000602082015250565b600061216a603d83611a52565b91506121758261210e565b604082019050919050565b600060208201905081810360008301526121998161215d565b9050919050565b7f4552433732313a2063616c6c6572206973206e6f7420746f6b656e206f776e6560008201527f72206f7220617070726f76656400000000000000000000000000000000000000602082015250565b60006121fc602d83611a52565b9150612207826121a0565b604082019050919050565b6000602082019050818103600083015261222b816121ef565b9050919050565b7f4552433732313a20696e76616c696420746f6b656e2049440000000000000000600082015250565b6000612268601883611a52565b915061227382612232565b602082019050919050565b600060208201905081810360008301526122978161225b565b9050919050565b7f4552433732313a2061646472657373207a65726f206973206e6f74206120766160008201527f6c6964206f776e65720000000000000000000000000000000000000000000000602082015250565b60006122fa602983611a52565b91506123058261229e565b604082019050919050565b60006020820190508181036000830152612329816122ed565b9050919050565b600081905092915050565b600061234682611a47565b6123508185612330565b9350612360818560208601611a63565b80840191505092915050565b6000612378828561233b565b9150612384828461233b565b91508190509392505050565b7f4e487b7100000000000000000000000000000000000000000000000000000000600052601160045260246000fd5b60006123ca82611af9565b91507fffffffffffffffffffffffffffffffffffffffffffffffffffffffffffffffff82036123fc576123fb612390565b5b600182019050919050565b7f4552433732313a207472616e736665722066726f6d20696e636f72726563742060008201527f6f776e6572000000000000000000000000000000000000000000000000000000602082015250565b6000612463602583611a52565b915061246e82612407565b604082019050919050565b6000602082019050818103600083015261249281612456565b9050919050565b7f4552433732313a207472616e7366657220746f20746865207a65726f2061646460008201527f7265737300000000000000000000000000000000000000000000000000000000602082015250565b60006124f5602483611a52565b915061250082612499565b604082019050919050565b60006020820190508181036000830152612524816124e8565b9050919050565b7f4552433732313a20617070726f766520746f2063616c6c657200000000000000600082015250565b6000612561601983611a52565b915061256c8261252b565b602082019050919050565b6000602082019050818103600083015261259081612554565b9050919050565b7f4552433732313a207472616e7366657220746f206e6f6e20455243373231526560008201527f63656976657220696d706c656d656e7465720000000000000000000000000000602082015250565b60006125f3603283611a52565b91506125fe82612597565b604082019050919050565b60006020820190508181036000830152612622816125e6565b9050919050565b7f4552433732313a206d696e7420746f20746865207a65726f2061646472657373600082015250565b600061265f602083611a52565b915061266a82612629565b602082019050919050565b6000602082019050818103600083015261268e81612652565b9050919050565b7f4552433732313a20746f6b656e20616c7265616479206d696e74656400000000600082015250565b60006126cb601c83611a52565b91506126d682612695565b602082019050919050565b600060208201905081810360008301526126fa816126be565b9050919050565b7f45524337323155524953746f726167653a2055524920736574206f66206e6f6e60008201527f6578697374656e7420746f6b656e000000000000000000000000000000000000602082015250565b600061275d602e83611a52565b915061276882612701565b604082019050919050565b6000602082019050818103600083015261278c81612750565b9050919050565b60008190508160005260206000209050919050565b60006020601f8301049050919050565b600082821b905092915050565b6000600883026127f57fffffffffffffffffffffffffffffffffffffffffffffffffffffffffffffffff826127b8565b6127ff86836127b8565b95508019841693508086168417925050509392505050565b6000819050919050565b600061283c61283761283284611af9565b612817565b611af9565b9050919050565b6000819050919050565b61285683612821565b61286a61286282612843565b8484546127c5565b825550505050565b600090565b61287f612872565b61288a81848461284d565b505050565b5b818110156128ae576128a3600082612877565b600181019050612890565b5050565b601f8211156128f3576128c481612793565b6128cd846127a8565b810160208510156128dc578190505b6128f06128e8856127a8565b83018261288f565b50505b505050565b600082821c905092915050565b6000612916600019846008026128f8565b1980831691505092915050565b600061292f8383612905565b9150826002028217905092915050565b61294882611a47565b67ffffffffffffffff81111561296157612960611d44565b5b61296b825461204b565b6129768282856128b2565b600060209050601f8311600181146129a95760008415612997578287015190505b6129a18582612923565b865550612a09565b601f1984166129b786612793565b60005b828110156129df578489015182556001820191506020850194506020810190506129ba565b868310156129fc57848901516129f8601f891682612905565b8355505b6001600288020188555050505b505050505050565b600081519050919050565b600082825260208201905092915050565b6000612a3882612a11565b612a428185612a1c565b9350612a52818560208601611a63565b612a5b81611a8d565b840191505092915050565b6000608082019050612a7b6000830187611b8e565b612a886020830186611b8e565b612a956040830185611c24565b8181036060830152612aa78184612a2d565b905095945050505050565b600081519050612ac1816119b8565b92915050565b600060208284031215612add57612adc611982565b5b6000612aeb84828501612ab2565b91505092915050565b7f4e487b7100000000000000000000000000000000000000000000000000000000600052601260045260246000fdfea2646970667358221220f0fae7e1b915d291343b62e59fd2b0c52a816dd372dfb067bb36ecdeaff754dd64736f6c63430008110033",
  "linkReferences": {},
  "deployedLinkReferences": {}
}